:100000000C94EF000C9408010C9408010C94080166
:100010000C9408010C9408010C9408010C9408013C
:100020000C9408010C9408010C9408010C9408012C
:100030000C9408010C9408010C9408010C9408011C
:100040000C9408010C9408010C9408010C9408010C
:100050000C9408010C9408010C9408010C940801FC
:100060000C9408010C9408010C9408010C940801EC
:100070000C9408010C9408010C9408010C940801DC
:100080000C9408010C9408010C9408010C940801CC
:100090000C9408010C9408010C9408010C940801BC
:1000A0000C9408010C9408010C9408010C940801AC
:1000B0000C9408010C9408010C9408010C9408019C
:1000C0000C9408010C9408010C9408010C9408018C
:1000D0000C9408010C9408010C9408010C9408017C
:1000E0000C94080100407A10F35A00A0724E1809CF
:1000F0000010A5D4E80000E87648170000E40B548F
:10010000020000CA9A3B000000E1F505000080965D
:100110009800000040420F000000A086010000008F
:10012000102700000000E803000000006400000049
:1001300000000A00000000000100000000002C7612
:10014000D888DC674F0823DFC1DFAE59E1B1B7962D
:10015000E5E3E453C63AE651997696E8E6C284268A
:10016000EB898C9B62ED407C6FFCEFBC9C9F40F266
:10017000BAA56FA5F490055A2AF75C936B6CF967E2
:100180006DC11BFCE0E40D47FEF520E6B500D0EDA7
:10019000902E0300943577050080841E080000200F
:1001A0004E0A000000C80C333333330F986E1283AD
:1001B0001141EF8D2114893BE65516CFFEE6DB1881
:1001C000D1844B381BF77C1D901DA4BBE424203246
:1001D00084725E228100C9F124ECA1E53D2711243F
:1001E0001FBECFEFD1E2DEBFCDBF00E00CBF13E0FA
:1001F000A0E0B2E0EAE6FCE100E00BBF02C007903D
:100200000D92A435B107D9F70E9453050C94330E13
:100210000C940000009711F400C008950197F1F7C5
:1002200008952A9A00C02A9808951F93662311F012
:10023000289A01C028982998249A259A269A279ABC
:100240002F982E982D982C9887FD2F9A182F86FD81
:100250002E9A15FD2D9A14FD2C9A0E9411012F98AB
:100260002E982D982C9813FD2F9A12FD2E9A11FD81
:100270002D9A10FD2C9A0E9411012C9A2D9A2E9ADB
:100280002F9A1F9108952898299A2498259826989E
:1002900027982A9A00C01C9902C080E001C080E122
:1002A0001D9980621E9980641F9980682A9800C0F9
:1002B0002A9A00C01C9981601D9982601E998460F1
:1002C0001F9988602A9808950E94430187FDFCCFFA
:1002D00088E090E00E940A010E94430108951F9364
:1002E000182F0E946401812F60E00E9415011F9168
:1002F00008951F93182F0E946401812F61E00E94CE
:1003000015011F910895662311F4805801C080548F
:100310000E946F0108950E94640190E0089581E0B9
:100320000E946F01089582E00E946F0108951F935B
:10033000182F0E9464011A3049F4803410F480E4CC
:1003400001C080E080580E946F0104C0812F61E0ED
:100350000E9415011F910895CF93DF93EC0102C015
:100360000E94970189918823D9F7DF91CF91089551
:10037000CF93DF93EC0102C00E949701FE0121960A
:1003800084918823C9F7DF91CF9108951F93182F87
:10039000209A219A229A249A259A269A279A80E0CE
:1003A0009AEF0E940A012D9A2C9A0E94110180E076
:1003B0009EE40E940A010E94110180E091E00E94E7
:1003C0000A010E94110180E091E00E940A012C982C
:1003D0000E94110180E091E00E940A0188E20E94DF
:1003E0006F0188E00E946F010E948F0186E00E94E9
:1003F0006F01812F0E946F011F910895389A399AD9
:100400003A9A3B9A3C983D983E983F98449A459A30
:10041000469A479A409A419A429A439A0895882365
:1004200019F44098419A04C0813021F4409A4198CF
:10043000429A05C0823029F4409A419A4298439AE0
:100440000895833021F4409A419A429A439808953E
:10045000409A419A429A439A08951F9380E00E94DD
:100460000F028FEF90E7A2E081509040A040E1F7AB
:1004700000C0000036B186B146B126B190E08F6D64
:100480009F6F80959095F5E095958795FA95E1F7A2
:10049000880F991F50E04F6B5F6F4095509576E045
:1004A000559547957A95E1F7440F551F440F551F11
:1004B000842B952B432F50E04F6E5F6F40955095E6
:1004C00014E0559547951A95E1F7842B952B30E06C
:1004D0002F673F6F20953095220F232F221F330B5C
:1004E000A3E0220F331FAA95E1F7822B932B9C01E7
:1004F000215030402830310528F48D5B9D4FDC01C0
:100500001C9101C010E081E00E940F028FEF90E784
:10051000A2E081509040A040E1F700C0000056B139
:1005200026B186B146B130E02F6D3F6F20953095F2
:10053000F5E035952795FA95E1F7220F331F90E006
:100540008F6B9F6F8095909576E0959587957A95BE
:10055000E1F7880F991F880F991F282B392B852FBA
:1005600090E08F6E9F6F8095909554E0959587955C
:100570005A95E1F7282B392B50E04F675F6F409574
:100580005095440F452F441F550B83E0440F551FD2
:100590008A95E1F7242B352B2230310571F0233079
:1005A000310524F42130310579F40DC024303105B2
:1005B00031F02830310541F404C015E305C012E3E1
:1005C00003C010E301C018E382E00E940F028FEF26
:1005D00090E7A2E081509040A040E1F700C0000009
:1005E00086B126B166B146B130E02F6D3F6F2095E0
:1005F0003095B5E035952795BA95E1F7220F331F71
:1006000070E06F6B7F6F60957095F6E075956795FC
:10061000FA95E1F7660F771F660F771F262B372BAA
:1006200090E08F6E9F6F8095909554E0959587959B
:100630005A95E1F7282B392B50E04F675F6F4095B3
:100640005095440F452F441F550B83E0440F551F11
:100650008A95E1F7242B352B2230310571F02330B8
:10066000310524F42130310579F40DC024303105F1
:1006700031F02830310541F404C016E305C013E31E
:1006800003C01DE301C019E383E00E940F028FEF56
:1006900090E7A2E081509040A040E1F700C0000048
:1006A00086B126B166B146B130E02F6D3F6F20951F
:1006B0003095B5E035952795BA95E1F7220F331FB0
:1006C00070E06F6B7F6F60957095F6E0759567953C
:1006D000FA95E1F7660F771F660F771F262B372BEA
:1006E00090E08F6E9F6F8095909554E095958795DB
:1006F0005A95E1F7282B392B50E04F675F6F4095F3
:100700005095440F452F441F550B83E0440F551F50
:100710008A95E1F7242B352B2230310571F02330F7
:10072000310524F42130310579F40DC02430310530
:1007300031F02830310541F404C01AE205C01DE251
:1007400003C01BE201C01FE20E9428021F3F09F400
:1007500010E0812F1F910895EF92FF920F931F9346
:10076000DF93CF93CDB7DEB72A970FB6F894DEBFED
:100770000FBECDBFFC01608171818281938143E016
:1007800022E07E010894E11CF11C87010E94C90B44
:10079000C7010E94AC012A960FB6F894DEBF0FBEC7
:1007A000CDBFCF91DF911F910F91FF90EF900895F2
:1007B0008F929F92AF92BF92CF92DF92EF92FF9271
:1007C0000F931F93CF93DF937C014B01C0E0D0E0E8
:1007D000AA24BB24CC24DD240E942D02182F8823B8
:1007E000D9F38E3209F44AC08B3231F08D3221F0C8
:1007F0008A3211F08F3231F5F40180818823F1F5CE
:10080000812F0E949701F40110838FE39CE90197E7
:10081000F1F700C00000209709F47AC000E010E072
:100820006A2D7B2D8C2D9D2D20E030E040E251E49F
:100830000E94F3085B016C010F5F1F4F0C171D072F
:100840007CF366C08D3309F5F40180818823B1F013
:100850008FE39CE90197F1F700C00000209709F4AD
:1008600057C06A2D7B2D8C2D9D2D20E030E040E27D
:1008700051E40E94F3085B016C014AC08FE39CE9DC
:100880000197F1F700C000002CC06A2D7B2D8C2D44
:100890009D2D20E030E040E251E40E94F9075B0129
:1008A0006C01612F772767FD7095872F972F0E9426
:1008B000A1099B01AC01C601B5010E949B0720E084
:1008C00030E040E452E40E94C8075B016C01812FD4
:1008D0000E949701EFE3FCE93197F1F700C00000B7
:1008E0002196C230D1050CF477CF00E010E06A2DDC
:1008F0007B2D8C2D9D2D20E030E040E251E40E94C4
:10090000F3085B016C010F5F1F4F0C171D077CF391
:10091000F70160817181828193812A2D3B2D4C2DBD
:100920005D2D0E949B07F70160837183828393830F
:10093000DF91CF911F910F91FF90EF90DF90CF90BB
:10094000BF90AF909F908F9008958F929F92AF929B
:10095000BF92CF92DF92EF92FF921F93CF93DF93DC
:100960007C01EB01CC24DD240E942D02182F88236A
:10097000D9F38E3211F48EE27EC08B3231F08D329B
:1009800021F08A3211F08F3241F48881882379F482
:10099000812F0E949701188305C08D3379F48881D7
:1009A000882329F0EFE3FCE93197F1F758C08FE392
:1009B0009CE90197F1F700C0000032C0F7016081A7
:1009C00071818281938120E030E040E251E40E9415
:1009D000F9074B015C01612F772767FD7095872F21
:1009E000972F0E94A1099B01AC01C501B4010E948F
:1009F0009B0720E030E040E452E40E94C807F70182
:100A00006083718382839383812F0E9497018FE398
:100A10009CE90197F1F700C000000894C11CD11CAB
:100A200093E0C916D1040CF49FCF0E942D02EFE38E
:100A3000FCE93197F1F700C000008B3231F08D32C4
:100A400021F08A3211F08F32A1F49881992351F468
:100A500088830E9497018FE39CE90197F1F700C01A
:100A6000000015C0EFE3FCE93197F1F700C000008A
:100A7000DCCF8E32D1F60E9497018FE39CE901977B
:100A8000F1F700C00000C701BE010E94D803DF914A
:100A9000CF911F91FF90EF90DF90CF90BF90AF90DC
:100AA0009F908F9008956F927F928F929F92AF92B6
:100AB000BF92CF92DF92EF92FF920F931F93DF933B
:100AC000CF93CDB7DEB72D970FB6F894DEBF0FBE2C
:100AD000CDBF8FEF84B987B915B818B88CE00E94E4
:100AE000C6010E94FE010E948F010E94930180E0D6
:100AF00092E00E94AC0180E061E00E94830181E10C
:100B000092E00E94AC018FEF9BE7A2E981509040F8
:100B1000A040E1F700C000000E948F010E949301F5
:100B200082E292E00E94AC0180E061E00E948301D9
:100B300083E392E00E94AC018FEF9BE7A2E9815032
:100B40009040A040E1F700C000000E948F010E9489
:100B500093010F2EF0E0EF2EF0E0FF2EF0E00F2FCC
:100B6000F0E01F2FF02D82E0A82EB12CAC0EBD1EA0
:100B70006E010894C11CD11CB6E08B2E912C8C0EFA
:100B80009D1EAAE06A2E712C6C0E7D1EEA82FB82ED
:100B90000C831D83EE82FF8208871987EA86FB8615
:100BA0000C871D871982C501B6010E94A504AFE319
:100BB000BCE91197F1F700C0000089818823C9F4CE
:100BC0000E942D028983EFE3FCE93197F1F700C021
:100BD00000008B3231F08D3221F08A3211F08F32E9
:100BE00079F70E9497018FE39CE90197F1F700C024
:100BF0000000C401B6010E94A5048DE30E94970184
:100C000089818B3251F08C321CF48A32A9F51BC0D9
:100C10008D3271F08F3281F521C06A817B818C81A8
:100C20009D812E813F81488559850E949B0720C068
:100C30006A817B818C819D812E813F814885598588
:100C40000E94C80715C06A817B818C819D812E819D
:100C50003F81488559850E94F9070AC06A817B81D6
:100C60008C819D812E813F81488559850E94F308A2
:100C70006A877B878C879D8780E061E00E94830183
:100C8000C3010E94AC038FEF9BE7A2E98150904023
:100C9000A040E1F700C000000E948F010E94930174
:100CA00075CFA0E0B0E0E7E5F6E00C94960BFC0110
:100CB000EA018081823008F438C1DB019C919230D6
:100CC00008F430C1843059F4943009F02EC1918178
:100CD00011968C911197981709F021C126C1943073
:100CE00009F420C19230B1F4823009F01EC1CA016A
:100CF000AF0128E0DA010D90AD01DC010D92CD01CC
:100D00002150C1F7DB0111968C91119791818923B4
:100D100089830AC1823009F405C1C280D380DB0116
:100D200012966D907C90139724813581468157816E
:100D30001496ED90FD900D911C911797C6018619A0
:100D400097095C0197FF04C0AA24BB24A81AB90A1A
:100D5000B0E2AB16B1040CF061C0181619066CF5C0
:100D6000370148010A2C04C09694879477946794BD
:100D70000A94D2F781E090E0A0E0B0E00A2C04C031
:100D8000880F991FAA1FBB1F0A94D2F70197A109C8
:100D9000B1098E219F21A023B123EE24FF248701D6
:100DA000E3940097A105B10519F4EE24FF2487010F
:100DB000E628F728082919293CC00097D1F1CA0C68
:100DC000DB1C39014A010A2C04C09694879477945D
:100DD00067940A94D2F781E090E0A0E0B0E00A2C9A
:100DE00004C0880F991FAA1FBB1F0A94D2F701974E
:100DF000A109B10982239323A423B52321E030E084
:100E000040E050E00097A105B10519F420E030E082
:100E1000A90126293729482959290BC06C147D04BA
:100E200024F4EE24FF24870104C0630120E030E0B5
:100E3000A9018181FB019181891709F445C08823AB
:100E400049F0D801C701821B930BA40BB50B9C0181
:100E5000AD0104C02E193F09400B510B57FD04C0D2
:100E60001982DB82CA820BC081E08983DB82CA825D
:100E700050954095309521953F4F4F4F5F4F2C83B4
:100E80003D834E835F830DC0880F991FAA1FBB1F30
:100E90008C839D83AE83BF838A819B8101979B83D3
:100EA0008A838C819D81AE81BF819C01AD012150DF
:100EB0003040404050402F3FEFEF3E07EFEF4E07EE
:100EC000EFE35E0708F30BC08983DB82CA822E0D35
:100ED0003F1D401F511F2C833D834E835F8383E062
:100EE00088832C813D814E815F8157FF1DC0DA01CF
:100EF000C90181709070A070B07056954795379574
:100F00002795822B932BA42BB52B8C839D83AE83AB
:100F1000BF838A819B8101969B838A8305C0ECE411
:100F2000F2E003C0FB0101C0FE01CF01CDB7DEB787
:100F3000EEE00C94B20BA0E2B0E0E1EAF7E00C9432
:100F40009E0B69837A838B839C832D833E834F839F
:100F5000588789E0E82EF12CEC0EFD1ECE0101969B
:100F6000B7010E94290B8E010F5E1F4FCE0105961F
:100F7000B8010E94290BC701B801AE01475E5F4F5F
:100F80000E9451060E945B0AA096E6E00C94BA0B00
:100F9000A0E2B0E0EEECF7E00C949E0B69837A835C
:100FA0008B839C832D833E834F8358878E01075FFD
:100FB0001F4FCE010196B8010E94290B91E1E92E45
:100FC000F12CEC0EFD1ECE010596B7010E94290BF7
:100FD0008A8991E089278A8BC801B701AE01475EF3
:100FE0005F4F0E9451060E945B0AA096E6E00C94B7
:100FF000BA0BA0E2B0E0EFEFF7E00C94920B69833C
:101000007A838B839C832D833E834F835887CE01C5
:101010000196BE01675F7F4F0E94290BCE010596A6
:10102000BE016F5E7F4F0E94290B9985923078F048
:1010300089898230C0F0943019F4823041F4CBC0F9
:10104000843019F4923079F4C6C0923051F481E0C2
:101050002A859A89291709F480E08A87CE010996A2
:10106000BCC0823051F481E02A859A89291709F49D
:1010700080E08A8BCE014196B0C06D847E848F84DF
:101080009888ED88FE880F89188DE0E2F0E080E016
:1010900090E0DC01AA24BB24650120E030E0A90136
:1010A000B3016170707061157105D1F02E0D3F1D97
:1010B000401F511F15012601280E391E4A1E5B1EB6
:1010C00081E090E0A0E0B0E02E153F054007510719
:1010D00018F080E090E0DC01820D931DA41DB51D89
:1010E000AA0CBB1CCC1CDD1C17FF09C061E0262E1E
:1010F000312C412C512CA228B328C428D528319753
:1011000049F0EE0CFF1C001F111F969487947794F2
:101110006794C6CF6B897C89EB85FC856E0F7F1F3A
:101120006E5F7F4F7C8F6B8F61E0EA857A89E7176E
:1011300009F460E06A8F6B8D7C8D10C0FC01E1705A
:10114000F070309729F05695479537952795506858
:10115000B695A795979587956F5F7F4FB7FDEECFB3
:101160000CC0880F991FAA1FBB1F57FD8160220F5B
:10117000331F441F551F615070408030E0E09E07D0
:10118000E0E0AE07E0E4BE0760F36B8F7C8F6FE7B3
:10119000E62EF12C012D112DE822F9220A231B2322
:1011A00060E4E616F1040105110561F487FD0AC04B
:1011B000211531054105510529F0805C9F4FAF4F46
:1011C000BF4F80788D8F9E8FAF8FB8A383E0898FBC
:1011D000CE01499602C08CE492E00E945B0AA09680
:1011E000E2E10C94AE0BA8E1B0E0E9EFF8E00C947A
:1011F0009A0B69837A838B839C832D833E834F83F1
:1012000058878E01075F1F4FCE010196B8010E94DB
:10121000290B81E1E82EF12CEC0EFD1ECE01059686
:10122000B7010E94290B9985923008F483C08989FF
:10123000823008F47BC02A853A8923272A87943094
:1012400011F0923021F4981709F06CC071C084300D
:1012500039F41D861E861F86188A1C861B866AC066
:10126000823019F484E0898765C08B859C852B8941
:101270003C89821B930B9C878B872D853E854F85F0
:101280005889ED88FE880F89188D2E153F05400777
:10129000510738F4220F331F441F551F01979C87B5
:1012A0008B876FE170E0A12CB12CC12CA0E4DA2E69
:1012B00080E090E0DC012E153F054007510740F02B
:1012C0008A299B29AC29BD292E193F09400B510BB6
:1012D000D694C794B794A794220F331F441F551F69
:1012E0006150704041F76FE7E62EF12C012D112D72
:1012F000E822F9220A231B2360E4E616F104010523
:10130000110561F487FD0AC021153105410551051C
:1013100029F0805C9F4FAF4FBF4F80788D879E87AD
:10132000AF87B88B8E01075F1F4F04C0870102C0D3
:101330000CE412E0C8010E945B0A6896EAE00C9493
:10134000B60BA8E0B0E0E7EAF9E00C949E0B7B0155
:101350008C0183E08983D801C7018827B7FD839575
:101360009927AA27BB27282F8A83E114F1040105B6
:10137000110519F482E0898337C08EE190E09C83E7
:101380008B83222389F080E0E81680E0F80680E075
:10139000080780E8180769F110950095F094E0942B
:1013A000E11CF11C011D111DED82FE820F831887C7
:1013B000C801B7010E94010A9C0121503040121659
:1013C000130694F4022E04C0EE0CFF1C001F111F24
:1013D0000A94D2F7ED82FE820F8318878EE190E0A7
:1013E000821B930B9C838B83CE0101960E945B0A28
:1013F00004C060E070E080E09FEC2896E6E00C948A
:10140000BA0BAF92BF92CF92DF92EF92FF920F93FF
:101410001F937B018C0180E0E81680E0F80681E0F4
:10142000080780E0180758F4EFEFEE16F104010505
:10143000110509F090F480E090E0DC0117C0F0E0C5
:10144000EF16F0E0FF06F0E00F07F1E01F0750F4A1
:1014500080E190E0A0E0B0E009C088E090E0A0E08A
:10146000B0E004C088E190E0A0E0B0E020E230E02D
:1014700040E050E0281B390B4A0B5B0B5701680119
:1014800004C0D694C794B794A7948A95D2F7D6018E
:10149000C5018C5A9D4FFC018081281B31094109EF
:1014A0005109C9011F910F91FF90EF90DF90CF90EC
:1014B000BF90AF900895EF92FF920F931F93CF9339
:1014C000DF93FC01248135814681578161818081D0
:1014D000823020F44061EFEFF0E0A3C0843009F4E3
:1014E0009BC0823009F492C0211531054105510598
:1014F00009F48FC00280F381E02D8FEFE238F80706
:101500000CF05AC0C2E8DFEFCE1BDF0BCA31D105A9
:101510006CF579018A010C2E04C016950795F79495
:10152000E7940A94D2F781E090E0A0E0B0E00C2EBE
:1015300004C0880F991FAA1FBB1F0A94D2F70197F6
:10154000A109B10982239323A423B52321E030E02C
:1015500040E050E00097A105B10519F420E030E02B
:10156000A9012E293F29402B512B03C020E030E058
:10157000A901DA01C9018F779070A070B070803432
:101580009105A105B10539F427FF09C0205C3F4F43
:101590004F4F5F4F04C0215C3F4F4F4F5F4FE1E023
:1015A000F0E0203080E0380780E0480780E458070A
:1015B00028F5E0E0F0E022C0E038F1056CF5E158F4
:1015C000FF4FDA01C9018F779070A070B07080343E
:1015D0009105A105B10539F427FF09C0205C3F4FF3
:1015E0004F4F5F4F04C0215C3F4F4F4F5F4F57FF3E
:1015F00005C05695479537952795319687E05695BE
:101600004795379527958A95D1F70BC0E0E0F0E034
:1016100005C0E0E0F0E005C0EFEFF0E020E030E0F2
:10162000A9018E2F879588278795942F9F77679597
:1016300066276795E695E22EA92FA82BFE2FF62B9D
:10164000622F732F8A2F9F2FCDB7DEB7E6E00C9461
:10165000BA0BDC01FB012C9111963C91119712966B
:101660008C911297482F4F7750E0982F991F992708
:10167000991F13966C911397862F880F892B90E0F2
:10168000661F6627661F6183009739F521153105AE
:101690004105510511F482E029C082E89FEF938350
:1016A000828367E0220F331F441F551F6A95D1F7CD
:1016B00083E0808309C0220F331F441F551F82819E
:1016C0009381019793838283203080E0380780E004
:1016D000480780E4580778F320C08F3F910579F4DC
:1016E000211531054105510519F484E080830895E1
:1016F00044FF03C081E0808310C010820EC08F576A
:1017000090409383828383E0808387E0220F331F9E
:10171000441F551F8A95D1F750642483358346832F
:10172000578308952F923F924F925F926F927F92CC
:101730008F929F92AF92BF92CF92DF92EF92FF92E1
:101740000F931F93CF93DF93CDB7DEB7CA1BDB0B8D
:101750000FB6F894DEBF0FBECDBF19942A88398822
:1017600048885F846E847D848C849B84AA84B98439
:10177000C884DF80EE80FD800C811B81AA81B98145
:10178000CE0FD11D0FB6F894DEBF0FBECDBFED0159
:101790000895EF92FF920F931F93322FF02E47FF81
:1017A00002C0A4E101C0A4E0E42FFF27E7FDF0950B
:1017B000F7FF03C0F095E195FF4F4F2D512F2E2FCE
:1017C000032FEA2E0E94EB0B8F2D912F1F910F916B
:1017D000FF90EF900895AF92BF92CF92DF92EF9279
:1017E000FF920F931F93DF93CF93CDB7DEB7299767
:1017F0000FB6F894DEBF0FBECDBF6A01F22E102FD8
:101800000C3318F4B02EB39402C0ECE3BE2EAE013C
:101810004F5F5F4F27E00B2D0E945B0D298130E069
:10182000A901497050704130510531F0E1FC06C00A
:10183000E0FE06C0E0E205C0EDE203C0EBE201C05D
:10184000E0E023FF37C0EE2311F084E001C083E025
:101850008F1518F4F81A8F2D01C080E0E4FC0BC03E
:10186000982FD60120E202C02D9391509923E1F7E1
:10187000C80ED11C80E0EE2319F0D601ED936D0166
:10188000F6013196E2FE05C09EE4D6019C9321E468
:1018900004C09EE6D6019C9321E611962C93918379
:1018A0003296982FDF0120E202C02D9391509923A8
:1018B000E1F73DC022FF41C0EE2311F084E001C0FA
:1018C00083E08F1518F4F81A8F2D01C080E0E4FC36
:1018D0000BC0982FD60120E202C02D93915099237E
:1018E000E1F7C80ED11C80E0EE2319F0D601ED938C
:1018F0006D01F6013196E2FE09C099E4D6019C9390
:101900009EE411969C93119796E407C099E6D60140
:101910009C939EE611969C9396E691833296982F1F
:10192000DF0120E202C02D9391509923E1F7E80FE7
:10193000F11D10822EEF3FEFACC041E050E0EE23EE
:1019400011F440E050E01816190624F4BC016F5F52
:101950007F4F02C061E070E0640F751F112329F012
:10196000412F50E04F5F5F4F02C040E050E0460F14
:10197000571F6F2D70E0461757071CF40F2D041BDF
:1019800001C000E0FF24A70140715070E4FC0DC0CD
:10199000E3FC0BC0602FD60170E202C07D93615062
:1019A0006623E1F7C00ED11C00E0EE2319F0D6014A
:1019B000ED936D014115510559F4402FF60150E3A7
:1019C00002C0519341504423E1F7C00ED11C00E006
:1019D000B80EFA80A9014071507024FF04C0BF2DD9
:1019E000B13309F4BA941B142CF4AB2DA93018F0C0
:1019F000A8E001C0A1E09C0197FF02C020E030E018
:101A0000BC016F5F7F4F621B730BFE013196E60FC7
:101A1000F71F6EE2E62EBC016A1B7109A12FB0E030
:101A2000AA24BB24AA1ABB0A1FEF2F3F310719F4BF
:101A3000D601ED926D01821793072CF062177307A0
:101A400014F4108101C010E32150304031962A1562
:101A50003B0524F0D6011D936D01E6CF2817390709
:101A600049F4BF2DB63328F4B53321F4411551059F
:101A700009F411E3F6011193802FDF0190E202C017
:101A80009D9381508823E1F7E00FF11D108220E043
:101A900030E0C90129960FB6F894DEBF0FBECDBF66
:101AA000CF91DF911F910F91FF90EF90DF90CF903A
:101AB000BF90AF900895283008F027E03327DA016F
:101AC000990F311D87FD916000966105710539F40C
:101AD00032602E5F3D9330E32A95E1F708959F3FF2
:101AE00030F080387105610509F03C5F3C5F3D9343
:101AF000913008F08068911DDF93CF931F930F936F
:101B0000FF92EF92192F987F9695E92F96959695CB
:101B1000E90FFF27E25CFE4F99273327EE24FF24CD
:101B2000A701E70105900894079428F4360FE71EF3
:101B3000F81E491F511D660F771F881F991F0694B5
:101B4000A1F70590079428F4E70EF81E491F561FC9
:101B5000C11D770F881F991F661F0694A1F7059076
:101B6000079428F4F80E491F561FC71FD11D880F70
:101B7000991F661F771F0694A1F70590079420F41C
:101B8000490F561FC71FD81F990F661F771F881F41
:101B90000694A9F784911095177041F0D695C795D2
:101BA00057954795F794E7941A95C1F7E4EEF0E05E
:101BB00068941590159135916591959105907FE206
:101BC0007395E118F10A430B560BC90BD009C0F706
:101BD000E10CF11E431F561FC91FD01D7EF4703348
:101BE00011F48A95E6CFE894015030F0080F0AF41A
:101BF0000027021708F4202F2395022F7A3328F0AC
:101C000079E37D932A95E9F710C07D932A9589F6AB
:101C1000069497956795379517951794E118F10AEB
:101C2000430B560BC90BD00998F023957E91739501
:101C30007A3308F070E37C932013B8F77E917061DB
:101C40007D9330F0839571E37D9370E32A95E1F7FE
:101C50001124EF90FF900F911F91CF91DF91992761
:0A1C600087FD90950895F894FFCFDA
:101C6A0057696C204B6174652079205061626C6FF2
:101C7A0000204C41422049493A204D4943524F5392
:101C8A002000202043616C63756C61646F7261206F
:101C9A0020200020202062617369636120557755F6
:101CAA0020202000373400310000002E0000000000
:101CBA0000000000000102020303030304040404F9
:101CCA0004040404050505050505050505050505BE
:101CDA00050505050606060606060606060606069E
:101CEA00060606060606060606060606060606068A
:101CFA00060606060707070707070707070707076E
:101D0A000707070707070707070707070707070759
:101D1A000707070707070707070707070707070749
:101D2A000707070707070707070707070707070739
:101D3A00070707070808080808080808080808081D
:101D4A000808080808080808080808080808080809
:101D5A0008080808080808080808080808080808F9
:101D6A0008080808080808080808080808080808E9
:101D7A0008080808080808080808080808080808D9
:101D8A0008080808080808080808080808080808C9
:101D9A0008080808080808080808080808080808B9
:101DAA0008080808080808080808080808080808A9
:041DBA000808080805
:00000001FF
