:100000000C9472000C948B000C948B000C948B005D
:100010000C948B000C948B000C948B000C948B0034
:100020000C948B000C948B000C948B000C948B0024
:100030000C948B000C948B000C948B000C948B0014
:100040000C948B000C948B000C948B000C948B0004
:100050000C948B000C948B000C948B000C948B00F4
:100060000C948B000C948B000C948B000C948B00E4
:100070000C948B000C948B000C948B000C948B00D4
:100080000C948B000C948B000C948B000C948B00C4
:100090000C948B000C948B000C948B000C948B00B4
:1000A0000C948B000C948B000C948B000C948B00A4
:1000B0000C948B000C948B000C948B000C948B0094
:1000C0000C948B000C948B000C948B000C948B0084
:1000D0000C948B000C948B000C948B000C948B0074
:1000E0000C948B0011241FBECFEFD1E2DEBFCDBF39
:1000F00000E00CBF13E0A0E0B2E0E6E3F8E100E0CE
:100100000BBF02C007900D92AC34B107D9F70E9423
:1001100011050C94190C0C940000662311F0289A18
:1001200001C028982998249A259A269A279A2F98C8
:100130002E982D982C9887FD2F9A86FD2E9A85FD56
:100140002D9A84FD2C9A2A9A00C02A982F982E98CE
:100150002D982C9883FD2F9A82FD2E9A81FD2D9A41
:1001600080FD2C9A2A9A00C02A982C9A2D9A2E9AB1
:100170002F9A0895882311F0289A01C02898299A67
:1001800024982598269827982A9A00C01C9B02C07C
:1001900080E101C080E01D9980621E9980641F99F2
:1001A00080682A9800C02A9A00C01C9981601D9915
:1001B00082601E9984601F9988602A98089580E063
:1001C0000E94BA0087FDFBCF88E090E00197F1F72D
:1001D00080E00E94BA0008951F93182F0E94DF004C
:1001E000812F60E00E948D001F9108951F93182FAA
:1001F0000E94DF00812F61E00E948D001F91089511
:10020000662311F4805801C080540E94EC000895C8
:100210000E94DF0090E0089581E00E94EC000895C4
:1002200082E00E94EC0008951F93182F0E94DF00C7
:100230001A3049F4803410F080E001C080E4805826
:100240000E94EC0004C0812F61E00E948D001F918C
:100250000895CF93DF93EC0102C00E9414018991AD
:100260008823D9F7DF91CF910895CF93DF93EC01E5
:1002700002C00E941401FE01219684918823C9F7CF
:10028000DF91CF9108951F93182F209A219A229AD7
:10029000249A259A269A279A80E09AEF0197F1F7F7
:1002A0002D9A2C9A2A9A00C02A9880E09EE4019701
:1002B000F1F72A9A00C02A9880E091E0FC0131977A
:1002C000F1F72A9A00C02A98FC013197F1F72C988F
:1002D0002A9A00C02A980197F1F788E20E94EC0060
:1002E00088E00E94EC000E940C0186E00E94EC0075
:1002F000812F0E94EC001F910895389A399A3A9AFA
:100300003B9A3C983D983E983F98449A459A469A25
:10031000479A409A419A429A439A0895882319F439
:100320004098419A04C0813021F4409A4198429A01
:1003300005C0823029F4409A419A4298439A089520
:10034000833021F4409A419A429A43980895409A02
:10035000419A429A439A08951F9380E00E948E0129
:1003600084EF91E020E931E0F9013197F1F701974D
:10037000D9F746B166B186B126B170E06F6D7F6F77
:1003800060957095F5E075956795FA95E1F7660FBC
:10039000771F90E08F6B9F6F8095909556E09595B5
:1003A00087955A95E1F7880F991F880F991F682B39
:1003B000792B50E04F6E5F6F4095509514E0559546
:1003C00047951A95E1F7642B752B30E02F673F6F47
:1003D00020953095220F232F221F330BA3E0220FED
:1003E000331FAA95E1F7622B732B6230710591F0F0
:1003F0006330710524F46130710551F407C0643035
:10040000710551F06830710519F408C017E307C091
:1004100010E005C014E303C011E301C01EE281E057
:100420000E948E0184EF91E020E931E0F9013197DB
:10043000F1F70197D9F746B166B186B126B170E000
:100440006F6D7F6F60957095F5E075956795FA957E
:10045000E1F7660F771F90E08F6B9F6F8095909507
:1004600056E0959587955A95E1F7880F991F880F63
:10047000991F682B792B50E04F6E5F6F4095509518
:1004800084E0559547958A95E1F7642B752B30E00C
:100490002F673F6F20953095220F232F221F330B9C
:1004A000A3E0220F331FAA95E1F7622B732B623072
:1004B000710581F06330710524F46130710579F4C0
:1004C00007C06430710541F06830710541F406C021
:1004D00018E305C015E303C012E301C010E382E096
:1004E0000E948E0184EF91E020E931E0F90131971B
:1004F000F1F70197D9F746B166B186B126B170E040
:100500006F6D7F6F60957095F5E075956795FA95BD
:10051000E1F7660F771F90E08F6B9F6F8095909546
:1005200056E0959587955A95E1F7880F991F880FA2
:10053000991F682B792B50E04F6E5F6F4095509557
:1005400094E0559547959A95E1F7642B752B30E02B
:100550002F673F6F20953095220F232F221F330BDB
:10056000B3E0220F331FBA95E1F7622B732B623091
:10057000710581F06330710524F46130710579F4FF
:1005800007C06430710541F06830710541F406C060
:1005900019E305C016E303C013E301C01DE383E0C4
:1005A0000E948E0184EF91E020E931E0F90131975A
:1005B000F1F70197D9F746B166B186B126B170E07F
:1005C0006F6D7F6F60957095A5E075956795AA959D
:1005D000E1F7660F771F90E08F6B9F6F8095909586
:1005E000E6E095958795EA95E1F7880F991F880FC2
:1005F000991F682B792B50E04F6E5F6F4095509597
:1006000034E0559547953A95E1F7642B752B30E02A
:100610002F673F6F20953095220F232F221F330B1A
:1006200083E0220F331F8A95E1F7622B732B623030
:10063000710581F06330710524F46130710579F43E
:1006400007C06430710541F06830710541F406C09F
:100650001FE205C01AE203C01DE201C01BE20E94B6
:10066000A701812F1F910895CF92DF92EF92FF9201
:100670000F931F93DF93CF93CDB7DEB764970FB679
:10068000F894DEBF0FBECDBFFC01009721F480E3DC
:100690000E94140138C08E010F5F1F4FCC24DD244F
:1006A000CF016AE070E00E94BB0B9C01205D3F4FD0
:1006B000D8012D933D938D0120533040CF01821BF3
:1006C000930B6AE070E00E94BB0BFB0161157105A2
:1006D00021F00894C11CD11CE3CFC601880F991FDB
:1006E0008E010F5F1F4F080F191FEE24FF24F80122
:1006F00080810E9414010894E11CF11C02501040FA
:10070000CE14DF04A4F764960FB6F894DEBF0FBED4
:10071000CDBFCF91DF911F910F91FF90EF90DF90B0
:10072000CF9008956F927F928F929F92AF92BF92D7
:10073000DF92EF92FF920F931F93CF93DF934C01C1
:10074000EB010F2EF0E0EF2EF0E0FF2EF0E00F2F88
:10075000F0E01F2FF02DAA24BB24B0E46B2EBCE9DF
:100760007B2E0E94AC01D82E8823D9F38EE2D816B6
:1007700009F44CC0EBE2DE1649F0FDE2DF1631F081
:100780008AE2D81619F0EFE2DE1609F5888188238F
:1007900009F03CC08D2D0E941401D88280E49CE9B0
:1007A0000197F1F7A114B10409F472C0C0E0D0E0E0
:1007B000C801B70120E030E040E251E40E94C108E6
:1007C0007B018C012196CA15DB0594F361C0FDE322
:1007D000DF1601F588818823C9F080E49CE9019740
:1007E000F1F7A114B10409F453C0C0E0D0E0C8018E
:1007F000B70120E030E040E251E40E94C1087B01F3
:100800008C012196CA15DB0594F342C0C301019700
:10081000F1F729C0C801B70120E030E040E251E41F
:100820000E94C7077B018C016D2D772767FD7095AE
:10083000872F972F0E946D099B01AC01C801B7015A
:100840000E949A0720E030E040E452E40E946907E9
:100850007B018C018D2D0E941401C3010197F1F7DA
:100860000894A11CB11CF2E0AF16B1040CF479CFCE
:10087000C0E0D0E0C801B70120E030E040E251E440
:100880000E94C1087B018C012196CA15DB0594F3F7
:10089000F4016081718182819381A80197010E9496
:1008A0009A07F4016083718382839383DF91CF91F0
:1008B0001F910F91FF90EF90DF90BF90AF909F90AE
:1008C0008F907F906F9008956F927F928F929F92FA
:1008D000AF92BF92CF92DF920F931F93DF93CF938C
:1008E00000D00F92CDB7DEB75C013B01CC24DD24F4
:1008F00010E4812E1CE9912E0E94AC01082F882360
:10090000D9F38E3209F471C08B3231F08D3221F07F
:100910008A3211F08F3251F4F3018081882369F417
:10092000802F0E941401F301008358C08D3349F4D5
:10093000F3018081882309F051C0C4010197F1F7C8
:1009400033C0F501608171818281938120E030E0C4
:1009500040E251E40E94C70769837A838B839C83BA
:10096000602F772767FD7095872F972F0E946D095D
:100970009B01AC0169817A818B819C810E949A07DD
:1009800020E030E040E452E40E946907F501608312
:10099000718382839383802F0E941401C401019785
:1009A000F1F70894C11CD11CF3E0CF16D1040CF46C
:1009B000A3CF00E41CE90E94AC01282FC8010197D5
:1009C000F1F72B3231F02D3221F02A3211F02F3293
:1009D00051F4F3018081882331F0208380E49CE985
:1009E0000197F1F70DC02E3231F78EE20E9414010B
:1009F00080E49CE90197F1F7C501B3010E949203DD
:100A00000F900F900F900F90CF91DF911F910F914A
:100A1000DF90CF90BF90AF909F908F907F906F901E
:100A200008952F923F924F925F926F927F928F9292
:100A30009F92AF92BF92CF92DF92EF92FF920F936D
:100A40001F93DF93CF93CDB7DEB729970FB6F894F6
:100A5000DEBF0FBECDBF8CE00E9443010E947D012E
:100A60000E940C010E94100180E092E00E94290186
:100A700080E061E00E94000181E192E00E94290192
:100A800080E395E720E931E0F9013197F1F701972B
:100A9000D9F70E940C010E94100182E292E00E94AC
:100AA000290180E061E00E94000183E392E00E945E
:100AB000290180E395E720E931E0F9013197F1F769
:100AC0000197D9F70E940C010E9410011E010894A1
:100AD000211C311C00E4402E0CE9502E80E090E0F7
:100AE000A0E0B0E08A839B83AC83BD838E839F8329
:100AF000A887B9871982CE010296B1010E946404C9
:100B0000C2010197F1F78981882399F40E94AC0111
:100B10008983F2013197F1F78B3231F08D3221F078
:100B20008A3211F08F3291F70E941401C2010197AD
:100B3000F1F7CE010696B1010E9464048DE30E9494
:100B4000140189818B32A1F08C321CF48A3229F491
:100B500025C08D32C1F08F3261F10F2EF0E06F2E83
:100B6000F0E07F2EF0E08F2EF0E09F2EF02D2DC0D4
:100B70006A817B818C819D812E813F814885598549
:100B80000E949A0720C06A817B818C819D812E8181
:100B90003F81488559850E94690715C06A817B811C
:100BA0008C819D812E813F81488559850E94C70790
:100BB0000AC06A817B818C819D812E813F8148851D
:100BC00059850E94C1083B014C01C401B3010E9438
:100BD000CB095B016C017B0180E061E00E940001B8
:100BE000C5010E9434038EE20E9414010027F7FC25
:100BF0000095102FC801B7010E946D099B01AC013F
:100C0000C401B3010E94690720E030E04AE754E4E0
:100C10000E94C7070E94CB09DC01CB010E9434036C
:100C200080E395E7E0E9F1E03197F1F70197D1F73B
:100C30000E940C010E94100151CFA0E0B0E0E3E25D
:100C4000F6E00C94E20BDC012B01FA019C9192304E
:100C500008F439C1EB018881823008F433C1943043
:100C600069F4843009F02FC111969C911197898104
:100C7000981709F428C1A4E4B2E025C1843009F42E
:100C800021C18230A9F4923009F01DC19A01AD0151
:100C900088E0EA010990AE01E90109929E018150C4
:100CA000C1F7E201898111969C918923818308C152
:100CB000923009F407C112962D903C901397EB01E6
:100CC0008A819B811496AD90BD90CD90DC90179752
:100CD000EC80FD800E811F819101281B390BB90129
:100CE00037FF04C066277727621B730B60327105DC
:100CF0000CF061C0121613066CF537014801062E80
:100D000004C096948794779467940A94D2F721E06C
:100D100030E040E050E004C0220F331F441F551F55
:100D20006A95D2F721503040404050402E213F215B
:100D300040235123211531054105510521F021E0C2
:100D400030E040E050E079018A01E628F7280829E0
:100D500019293CC0232BD1F1260E371E350146013F
:100D6000062E04C096948794779467940A94D2F7D9
:100D700021E030E040E050E004C0220F331F441F68
:100D8000551F6A95D2F721503040404050402A21EB
:100D90003B214C215D21211531054105510521F0F3
:100DA00021E030E040E050E059016A01A628B72870
:100DB000C828D9280BC0821593052CF01C01AA2441
:100DC000BB24650103C0EE24FF24870111969C918A
:100DD000D20111968C91981709F445C0992339F0E6
:100DE000A80197012A193B094C095D0906C0A60113
:100DF00095012E193F09400B510B57FD08C0118278
:100E00003382228224833583468357831DC081E049
:100E100081833382228288279927DC01821B930BEE
:100E2000A40BB50B84839583A683B7830DC0220FD3
:100E3000331F441F551F2483358346835783828184
:100E400093810197938382832481358146815781E1
:100E5000DA01C9010197A109B1098F5F9F4FAF4F17
:100E6000BF4328F30BC0918333822282EA0CFB1C20
:100E70000C1D1D1DE482F5820683178383E08083A9
:100E8000248135814681578157FF1AC0C901AA279D
:100E900097FDA095BA2F81709070A070B070569594
:100EA000479537952795822B932BA42BB52B8483BD
:100EB0009583A683B78382819381019693838283EE
:100EC000DF0101C0D201CD01CDB7DEB7E2E10C9464
:100ED000FE0BA0E2B0E0EFE6F7E00C94EE0B6983C6
:100EE0007A838B839C832D833E834F835887E9E0ED
:100EF000EE2EF12CEC0EFD1ECE010196B7010E94E4
:100F0000430B8E010F5E1F4FCE010596B8010E9464
:100F1000430B8A8991E089278A8BC701B801AE010A
:100F2000475E5F4F0E941D060E946E0AA096E6E093
:100F30000C940A0CA0E2B0E0E0EAF7E00C94EE0BAF
:100F400069837A838B839C832D833E834F83588769
:100F5000F9E0EF2EF12CEC0EFD1ECE010196B7014B
:100F60000E94430B8E010F5E1F4FCE010596B80104
:100F70000E94430BC701B801AE01475E5F4F0E945C
:100F80001D060E946E0AA096E6E00C940A0CA0E2F0
:100F9000B0E0EDECF7E00C94E20B69837A838B838D
:100FA0009C832D833E834F835887CE010196BE01DB
:100FB000675F7F4F0E94430BCE010596BE016F5EB7
:100FC0007F4F0E94430B9985923088F08989823047
:100FD000C8F0943019F4823051F404C0843029F4FC
:100FE000923081F484E492E0C6C0923049F420E06B
:100FF0009A858A89981321E02A87CE010996BBC079
:10100000823049F420E09A858A89981321E02A8B5E
:10101000CE014196B0C02D843E844F8458886D889F
:101020007E888F88988CEE24FF248701AA24BB2415
:10103000650140E050E060E070E0E0E0F0E0C10118
:1010400081709070892BE9F0E60CF71C081D191DC2
:101050009A01AB012A0D3B1D4C1D5D1D80E090E007
:10106000A0E0B0E0E614F7040805190520F481E0DB
:1010700090E0A0E0B0E0BA01A901480F591F6A1F33
:101080007B1FAA0CBB1CCC1CDD1C97FE08C081E09A
:1010900090E0A0E0B0E0A82AB92ACA2ADB2A31965B
:1010A000E032F10549F0660C771C881C991C5694B7
:1010B000479437942794C3CFFA85EA892B893C89D2
:1010C0008B859C85280F391F2E5F3F4F17C0CA01A3
:1010D00081709070892B61F016950795F794E794CD
:1010E00080E090E0A0E0B0E8E82AF92A0A2B1B2B68
:1010F00076956795579547952F5F3F4F77FDE7CFDB
:101100000CC0440F551F661F771F17FD4160EE0C82
:10111000FF1C001F111F21503040403090E0590744
:1011200090E0690790E4790760F32B8F3C8FDB0137
:10113000CA018F779070A070B07080349105A105BE
:10114000B10561F447FD0AC0E114F1040105110580
:1011500029F0405C5F4F6F4F7F4F40781A8EFE172B
:1011600011F081E08A8F4D8F5E8F6F8F78A383E0BF
:10117000898FCE0149960E946E0AA096E2E10C94F6
:10118000FE0BA8E1B0E0E7ECF8E00C94EA0B698311
:101190007A838B839C832D833E834F835887B9E06A
:1011A000EB2EF12CEC0EFD1ECE010196B7010E9434
:1011B000430B8E010F5E1F4FCE010596B8010E94B2
:1011C000430B2985223008F47EC03989323010F46F
:1011D000B8017CC08A859A8989278A87243011F0D2
:1011E000223031F4231709F06EC064E472E06EC05F
:1011F000343039F41D861E861F86188A1C861B868D
:1012000004C0323021F484E08987B7015FC02B85A8
:101210003C858B899C89281B390B3C872B87ED8467
:10122000FE840F851889AD88BE88CF88D88CEA14D3
:10123000FB040C051D0540F4EE0CFF1C001F111FE4
:10124000215030403C872B8720E030E040E050E0E8
:1012500080E090E0A0E0B0E460E070E0EA14FB041D
:101260000C051D0540F0282B392B4A2B5B2BEA1867
:10127000FB080C091D09B695A79597958795EE0C67
:10128000FF1C001F111F6F5F7F4F6F31710531F71A
:10129000DA01C9018F779070A070B0708034910529
:1012A000A105B10561F427FD0AC0E114F1040105AF
:1012B000110529F0205C3F4F4F4F5F4F20782D875D
:1012C0003E874F87588BBE01675F7F4FCB010E94DF
:1012D0006E0A6896EAE00C94060CA8E0B0E0E3E73A
:1012E000F9E00C94EB0B9B01AC0183E08983DA01FC
:1012F000C9018827B7FD83959927AA27BB27B82E50
:10130000211531054105510519F482E089833AC060
:101310008823A9F0203080E0380780E0480780E883
:10132000580729F460E070E080E09FEC30C0EE24C4
:10133000FF248701E21AF30A040B150B02C079019E
:101340008A018EE1C82ED12CDC82CB82ED82FE8216
:101350000F831887C801B7010E941F0A019718164A
:10136000190684F4082E04C0EE0CFF1C001F111F88
:101370000A94D2F7ED82FE820F831887C81AD90A21
:10138000DC82CB82BA82CE0101960E946E0A289638
:10139000E9E00C94070CACE0B0E0E1EDF9E00C946E
:1013A000F20B69837A838B839C83CE010196BE0105
:1013B0006B5F7F4F0E94430B8D81823061F18230E1
:1013C00050F1843021F48E81882351F12EC02F8179
:1013D000388537FD20C06E812F3131051CF0662322
:1013E000F9F023C08EE190E0821B930B29853A85AA
:1013F0004B855C8504C056954795379527958A950A
:10140000D2F76623B1F050954095309521953F4F26
:101410004F4F5F4F0EC020E030E040E050E009C089
:101420002FEF3FEF4FEF5FE704C020E030E040E0F8
:1014300050E8B901CA012C96E2E00C940E0CEF9230
:10144000FF920F931F937B018C0180E0E81680E0F0
:10145000F80681E0080780E0180788F48FEFE816A7
:10146000F1040105110531F028F088E090E0A0E0DA
:10147000B0E017C080E090E0A0E0B0E012C080E0F3
:10148000E81680E0F80680E0080781E0180728F0F9
:1014900088E190E0A0E0B0E004C080E190E0A0E04E
:1014A000B0E020E230E040E050E0281B390B4A0B6E
:1014B0005B0B04C016950795F794E7948A95D2F7CD
:1014C000F701E45BFD4F8081281B31094109510977
:1014D000C9011F910F91FF90EF900895DF92EF9255
:1014E000FF920F931F93FC01E480F5800681178122
:1014F000D1808081823048F480E090E0A0E1B0E0CB
:10150000E82AF92A0A2B1B2BA5C0843009F49FC0B6
:10151000823021F4EE24FF24870105C0E114F10498
:101520000105110519F4E0E0F0E096C062817381D5
:101530009FEF623879070CF05BC022E83FEF261B73
:10154000370B2A3131052CF020E030E040E050E04C
:101550002AC0B801A701022E04C076956795579559
:1015600047950A94D2F781E090E0A0E0B0E004C093
:10157000880F991FAA1FBB1F2A95D2F70197A109AF
:10158000B1098E219F21A023B1230097A105B105A8
:1015900021F081E090E0A0E0B0E09A01AB01282BBF
:1015A000392B4A2B5B2BDA01C9018F779070A07021
:1015B000B07080349105A105B10539F427FF09C049
:1015C000205C3F4F4F4F5F4F04C0215C3F4F4F4F58
:1015D0005F4FE0E0F0E02030A0E03A07A0E04A07EB
:1015E000A0E45A0710F0E1E0F0E079018A0127C099
:1015F0006038710564F5FB01E158FF4FD801C70160
:101600008F779070A070B07080349105A105B105FE
:1016100039F4E7FE0DC080E490E0A0E0B0E004C043
:101620008FE390E0A0E0B0E0E80EF91E0A1F1B1F58
:1016300017FF05C016950795F794E794319687E054
:1016400016950795F794E7948A95D1F705C0EE248F
:10165000FF248701EFEFF0E06E2F6795662767950F
:10166000902F9F77D794DD24D7948E2F8695492F7E
:10167000462B582F5D29B701CA011F910F91FF908A
:10168000EF90DF900895FC01DB01408151812281C0
:10169000622F6F7770E0221F2227221F9381892FEC
:1016A000880F822B282F30E0991F9927991F1196B8
:1016B0009C93119721153105A9F541155105610537
:1016C000710511F482E037C082E89FEF13969C9376
:1016D0008E9312979A01AB0167E0220F331F441FCC
:1016E000551F6A95D1F783E08C930DC0220F331FED
:1016F000441F551F12968D919C9113970197139635
:101700009C938E931297203080E0380780E0480742
:1017100080E4580758F314962D933D934D935C93B2
:10172000179708952F3F310579F44115510561054B
:10173000710519F484E08C93089564FF03C081E07F
:101740008C9312C01C9210C02F57304013963C93BC
:101750002E93129783E08C9387E0440F551F661FEA
:10176000771F8A95D1F7706414964D935D936D93AE
:101770007C931797089597FB092E07260AD077FDCB
:1017800004D00CD006D000201AF4709561957F4FDC
:101790000895F6F7909581959F4F0895AA1BBB1B5E
:1017A00051E107C0AA1FBB1FA617B70710F0A61B61
:1017B000B70B881F991F5A95A9F780959095BC0182
:1017C000CD0108952F923F924F925F926F927F9238
:1017D0008F929F92AF92BF92CF92DF92EF92FF9241
:1017E0000F931F93CF93DF93CDB7DEB7CA1BDB0BED
:1017F0000FB6F894DEBF0FBECDBF19942A88398882
:1018000048885F846E847D848C849B84AA84B98498
:10181000C884DF80EE80FD800C811B81AA81B981A4
:10182000CE0FD11D0FB6F894DEBF0FBECDBFED01B8
:061830000895F894FFCFBB
:1018360057696C204B6174652079205061626C6F2A
:1018460000204C41422049493A204D4943524F53CA
:101856002000202043616C63756C61646F726120A7
:10186600202000202020626173696361205577552E
:1018760020202000000000000000000000010202FD
:101886000303030304040404040404040505050512
:1018960005050505050505050505050506060606EE
:1018A60006060606060606060606060606060606D2
:1018B60006060606060606060606060607070707BE
:1018C60007070707070707070707070707070707A2
:1018D6000707070707070707070707070707070792
:1018E6000707070707070707070707070707070782
:1018F600070707070707070707070707080808086E
:101906000808080808080808080808080808080851
:101916000808080808080808080808080808080841
:101926000808080808080808080808080808080831
:101936000808080808080808080808080808080821
:101946000808080808080808080808080808080811
:101956000808080808080808080808080808080801
:1019660008080808080808080808080808080808F1
:0C19760008080808080808080808080805
:00000001FF
